S00C00004C6162322E73726563D7
S11300000C9434000C9449000C9449000C9449005D
S11300100C9449000C9449000C9449000C94490038
S11300200C9449000C9449000C9449000C94490028
S11300300C9449000C9449000C9449000C94490018
S11300400C9449000C9449000C9449000C94490008
S11300500C9449000C9449000C9449000C944900F8
S11300600C9449000C94490011241FBECFEFD8E032
S1130070DEBFCDBF11E0A0E0B1E0ECE3F1E002C0EF
S113008005900D92AC30B107D9F70E9462000C9430
S11300909C000C9400001092C50087E68093C40075
S11300A0E1ECF0E0808188618083E2ECF0E0808123
S11300B08660808308959091C00095FFFCCF809363
S11300C0C6000895CF93DF93CDB7DEB72C970FB654
S11300D0F894DEBF0FBECDBF0E944B008CE0E0E081
S11300E0F1E0DE01119601900D928A95E1F710E09E
S11300F00AC0E1E0F0E0EC0FFD1FE80FF91F80817A
S11301000E945B001F5F812F90E0DE011196FD01CC
S113011001900020E9F73197EA1BFB0BFF278E17AC
S11301209F073CF32FEF89E698E1215080409040EF
S10F0130E1F700C00000D2CFF894FFCF2C
S10F013C3832353230393937370A0D00BB
S9030000FC
