:100000000C9434000C943E000C943E000C943E0082
:100010000C943E000C943E000C943E000C94D800CE
:100020000C94E7000C943E000C943E000C943E00AF
:100030000C943E000C943E000C9477000C943E000F
:100040000C943E000C943E000C943E000C943E0038
:100050000C943E000C948C000C943E000C943E00DA
:100060000C943E000C943E0011241FBECFEFD8E04C
:10007000DEBFCDBF0E94F6000C9428020C94000055
:10008000ECE7F0E0808181648083EAE7F0E0808142
:100090008F6A8083EBE7F0E080818360808387B1A3
:1000A0008D7F87B984B1806284B9089584B58260F8
:1000B00084BD85B5846085BDEEE6F0E08081826018
:1000C00080838FE987BD0895E0EBF0E08081826056
:1000D0008083E0E7F0E0808186608083E1EBF0E000
:1000E0008081866080838DE48093B30008951F92A1
:1000F0000F920FB60F9211248F93EF93FF93EAE7BD
:10010000F0E0808180648083FF91EF918F910F9068
:100110000FBE0F901F9018951F920F920FB60F925F
:100120001124CF92DF92EF92FF922F933F934F9340
:100130005F936F937F938F939F93AF93BF93CF936F
:10014000EF93FF93C091B3006091780070917900B4
:1001500080E090E00E942D0120E030E040E85AE38A
:100160000E9493016B017C016C2F70E080E090E0B5
:100170000E942F01A70196010E9493010E94FE0098
:100180006093B400FF91EF91CF91BF91AF919F9198
:100190008F917F916F915F914F913F912F91FF9040
:1001A000EF90DF90CF900F900FBE0F901F9018959B
:1001B0001F920F920FB60F9211248F9385B1806218
:1001C00085B98F910F900FBE0F901F9018951F92B9
:1001D0000F920FB60F9211248F9385B18F7D85B941
:1001E0008F910F900FBE0F901F9018950E94560090
:1001F0000E9464000E9440007894FFCF0E94720128
:1002000088F09F5798F0B92F9927B751B0F0E1F0D7
:10021000660F771F881F991F1AF0BA95C9F714C087
:10022000B13091F00E948C01B1E008950C948C01E2
:10023000672F782F8827B85F39F0B93FCCF38695C0
:1002400077956795B395D9F73EF49095809570951D
:1002500061957F4F8F4F9F4F0895E89409C097FB9A
:100260003EF490958095709561957F4F8F4F9F4F8D
:100270009923A9F0F92F96E9BB279395F6958795D1
:1002800077956795B795F111F8CFFAF4BB0F11F494
:1002900060FF1BC06F5F7F4F8F4F9F4F16C088233B
:1002A00011F096E911C0772321F09EE8872F762F71
:1002B00005C0662371F096E8862F70E060E02AF0B2
:1002C0009A95660F771F881FDAF7880F969587959E
:1002D00097F9089557FD9058440F551F59F05F3F07
:1002E00071F04795880F97FB991F61F09F3F79F058
:1002F00087950895121613061406551FF2CF4695DA
:10030000F1DF08C0161617061806991FF1CF86955B
:100310007105610508940895E894BB27662777273F
:10032000CB0197F908950E94A6010C9417020E9430
:10033000090238F00E94100220F0952311F00C946D
:1003400000020C94060211240C948D010E946A0193
:1003500070F3959FC1F3950F50E0551F629FF00118
:10036000729FBB27F00DB11D639FAA27F00DB11D31
:10037000AA1F649F6627B00DA11D661F829F2227BA
:10038000B00DA11D621F739FB00DA11D621F839F41
:10039000A00D611D221F749F3327A00D611D231F17
:1003A000849F600D211D822F762F6A2F11249F5765
:1003B00050409AF0F1F088234AF0EE0FFF1FBB1F68
:1003C000661F771F881F91505040A9F79E3F510527
:1003D00080F00C9400020C948D015F3FE4F3983E92
:1003E000D4F3869577956795B795F795E7959F5FD1
:1003F000C1F7FE2B880F911D9695879597F9089563
:1004000097F99F6780E870E060E008959FEF80ECC7
:10041000089500240A94161617061806090608956A
:1004200000240A9412161306140605060895092ED0
:100430000394000C11F4882352F0BB0F40F4BF2B3F
:1004400011F460FF04C06F5F7F4F8F4F9F4F08957F
:04045000F894FFCF4E
:00000001FF
