S00E000054696D6572732E73726563A2
S11300000C9434000C943E000C943E000C943E007E
S11300100C943E000C943E000C943E000C943E0064
S11300200C943E000C943E000C943E000C943E0054
S11300300C943E000C943E000C943E000C943E0044
S11300400C943E000C943E000C943E000C943E0034
S11300500C943E000C943E000C943E000C943E0024
S11300600C943E000C943E0011241FBECFEFD8E048
S1130070DEBFCDBF0E9440000C9451000C940000E0
S113008085B1806285B9AA9BFECF85B3846085BBA8
S113009085B18F7D85B9A99BFECF85B3826085BB71
S10900A0EFCFF894FFCF3E
S9030000FC
