S00C00004C6162332E73726563D6
S11300000C9434000C9449000C9449000C9449005D
S11300100C9449000C9449000C9449000C94490038
S11300200C9449000C9449000C9449000C94490028
S11300300C9449000C9449000C9449000C94490018
S11300400C9449000C9449000C9449000C94490008
S11300500C9449000C9449000C9449000C944900F8
S11300600C9449000C94490011241FBECFEFD8E032
S1130070DEBFCDBF11E0A0E0B1E0E4E8F1E002C0F2
S113008005900D92A031B107D9F70E94AF000C94EE
S1130090C0000C9400001092C50087E68093C40051
S11300A0E1ECF0E0808188618083E2ECF0E0808123
S11300B08660808308959091C00095FFFCCF809363
S11300C0C6000895EF92FF920F931F93CF93DF938F
S11300D0D0E03CC08BB1ED2EF12C97012C5F3F4F4B
S11300E001E010E002C0000F111F2A95E2F7902FE3
S11300F0909589238BB9C0E023C083B12C2F30E0C5
S113010090E00C2E02C0959587950A94E2F780FD45
S113011016C04FEF84E39CE0415080409040E1F7EB
S113012000C00000C701880F991F880F991F8050D5
S11301309F4FFC01E20FF31F80810E945B00CF5FA1
S1130140C430D8F28BB1082B0BB9DF5FD43010F276
S1130150DF91CF911F910F91FF90EF9008950E942E
S11301604B008AB1806F8AB984B1807F84B985B12C
S11301708F6085B98BB1806F8BB90E946200FDCF0F
S1070180F894FFCF1D
S11301843132334134353642373839432A30234403
S9030000FC
