:100000000C9475000C948A000C948A000C948A005D
:100010000C948A000C948A000C948A000C948A0038
:100020000C948A000C948A000C948A000C948A0028
:100030000C948A000C948A000C948A000C948A0018
:100040000C948A000C948A000C948A000C948A0008
:100050000C948A000C948A000C948A000C948A00F8
:100060000C948A000C948A0007634236B79BD8A789
:100070001A39685618AEBAAB558C1D3CB7CC5763CD
:10008000BD6DEDFD753EF6177231BF000000803F7B
:1000900008000000BE922449123EABAAAA2ABECD97
:1000A000CCCC4C3E00000080BEABAAAAAA3E000009
:1000B0000000BF000000803F000000000008417801
:1000C000D3BB4387D1133D190E3CC3BD4282AD2B38
:1000D0003E68EC8276BED98FE1A93E4C80EFFFBE30
:1000E00001C4FF7F3F000000000011241FBECFEFBE
:1000F000D8E0DEBFCDBF11E0A0E0B1E0E2EAF9E078
:1001000002C005900D92A031B107D9F70E943C01C1
:100110000C94CF040C9400008AB1806F8AB984B12A
:10012000807F84B985B18F6085B98BB1806F8BB9C1
:10013000E0EBF0E0808183628083E1EBF0E080819E
:100140008E6080838AB188608AB90895682F70E0D4
:1001500080E090E00E94E2019B01AC016DE77CE948
:1001600087E89FE30E94DD0220E030E04CED53E49D
:100170000E9470029B01AC0160E070E080E89FE3A8
:100180000E94410120E034E244E759E40E947002F9
:1001900020E030E040E853E40E94700220E030E0CC
:1001A00040E859E30E9470020E94B3018FEF860F6E
:1001B0000895CF93DF93D82FC62F21C08D2F90E0C5
:1001C000880F991F880F991F80509F4FFC01E20FE5
:1001D000F31F80810E94A600E3EBF0E08083608142
:1001E00070E080E090E00E94E40120E030E040E038
:1001F0005FE30E9470020E94B3016093B40083B178
:100200002C2F30E090E00C2E02C0959587950A9433
:10021000E2F780FFD3CF1092B3001092B400DF91C9
:10022000CF9108950F931F93CF93DF93D0E01DC01C
:100230008BB12D2F30E02C5F3F4F01E010E002C06A
:10024000000F111F2A95E2F7902F909589238BB903
:10025000C0E005C06C2F8D2F0E94D900CF5FC43045
:10026000C8F38BB1082B0BB9DF5FD43008F3DF91F3
:10027000CF911F910F9108950E948C000E9412014E
:10028000FDCF0E9455010C9436020E942F0258F0B7
:100290000E94280240F029F45F3F29F00C941F02CD
:1002A00051110C946A020C9425020E94470268F3D3
:1002B0009923B1F3552391F3951B550BBB27AA271F
:1002C00062177307840738F09F5F5F4F220F331F59
:1002D000441FAA1FA9F335D00E2E3AF0E0E832D021
:1002E00091505040E695001CCAF72BD0FE2F29D024
:1002F000660F771F881FBB1F261737074807AB07F6
:10030000B0E809F0BB0B802DBF01FF2793585F4F6A
:100310003AF09E3F510578F00C941F020C946A024B
:100320005F3FE4F3983ED4F3869577956795B7954C
:10033000F7959F5FC9F7880F911D9695879597F957
:100340000895E1E0660F771F881FBB1F62177307D0
:100350008407BA0720F0621B730B840BBA0BEE1FE5
:1003600088F7E09508950E944F0288F09F5798F013
:10037000B92F9927B751B0F0E1F0660F771F881FAA
:10038000991F1AF0BA95C9F714C0B13091F00E94C4
:100390006902B1E008950C946902672F782F8827CD
:1003A000B85F39F0B93FCCF3869577956795B395EB
:1003B000D9F73EF490958095709561957F4F8F4F5A
:1003C0009F4F0895E89409C097FB3EF4909580955F
:1003D000709561957F4F8F4F9F4F9923A9F0F92F0B
:1003E00096E9BB279395F695879577956795B79589
:1003F000F111F8CFFAF4BB0F11F460FF1BC06F5F6F
:100400007F4F8F4F9F4F16C0882311F096E911C080
:10041000772321F09EE8872F762F05C0662371F0A1
:1004200096E8862F70E060E02AF09A95660F771FB5
:10043000881FDAF7880F9695879597F9089597F9A9
:100440009F6780E870E060E008959FEF80EC08957A
:1004500000240A94161617061806090608950024A3
:100460000A9412161306140605060895092E03941D
:10047000000C11F4882352F0BB0F40F4BF2B11F491
:1004800060FF04C06F5F7F4F8F4F9F4F089557FDF0
:100490009058440F551F59F05F3F71F04795880FF2
:1004A00097FB991F61F09F3F79F087950895121689
:1004B00013061406551FF2CF4695F1DF08C0161635
:1004C00017061806991FF1CF8695710561050894E6
:1004D0000895E894BB2766277727CB0197F90895FD
:1004E0000E9483020C9436020E94280238F00E9477
:1004F0002F0220F0952311F00C941F020C9425027A
:1005000011240C946A020E94470270F3959FC1F374
:10051000950F50E0551F629FF001729FBB27F00DB1
:10052000B11D639FAA27F00DB11DAA1F649F662706
:10053000B00DA11D661F829F2227B00DA11D621F55
:10054000739FB00DA11D621F839FA00D611D221F0F
:10055000749F3327A00D611D231F849F600D211DF3
:10056000822F762F6A2F11249F5750409AF0F1F076
:1005700088234AF0EE0FFF1FBB1F661F771F881FDF
:1005800091505040A9F79E3F510580F00C941F02F6
:100590000C946A025F3FE4F3983ED4F38695779516
:1005A0006795B795F795E7959F5FC1F7FE2B880F85
:1005B000911D9695879597F90895FA01EE0FFF1F03
:1005C000309621053105A1F16115710561F480387E
:1005D000BFE39B0749F168949038810561F080384A
:1005E000BFEF9B0741F099234AF5FF3FE105310535
:1005F000210519F1E8940894E795D901AA2329F473
:10060000AB2FBE2FF85FD0F310C0FF5F70F4A6953C
:10061000E0F7F73950F019F0FF3A38F49F779F93DD
:100620000DD00F9007FC9058089546F00C942502C9
:1006300060E070E080E89FE308954FE79F775F9365
:100640004F933F932F930E94D8032F913F914F9147
:100650005F910E9470020C94350329F416F00C94FB
:100660001F020C9469020C9425020E944F02A8F309
:100670009638A0F707F80F92E8942BE33AEA48EB94
:100680005FE70E9486020F920F920F924DB75EB7FE
:100690000F920E942004E8E6F0E00E9467034F9169
:1006A0005F91EF91FF91E595EE1FFF1F49F0FE5717
:1006B000E0684427EE0F441FFA95E1F74195550B8A
:1006C0000E949A030F9007FE0C948E030895DF9307
:1006D000CF931F930F93FF92EF92DF927B018C01D8
:1006E000689406C0DA2EEF010E948302FE01E894AE
:1006F000A5912591359145915591A6F3EF010E9461
:100700006C04FE019701A801DA9469F7DF90EF907D
:10071000FF900F911F91CF91DF9108959B01AC0144
:1007200060E070E080E89FE30C9441010C941F02AC
:100730000C94C1040E944F02D8F39923C9F3940F7B
:10074000511DA3F39150504094F059F0882332F09A
:10075000660F771F881F91505040C1F79E3F51058B
:100760002CF7880F911D9695879597F908955F3F0F
:10077000ACF0983E9CF0BB27869577956795B7952A
:1007800008F4B1609395C1F7BB0F58F711F460FFFF
:10079000E8CF6F5F7F4F8F4F9F4FE3CF0C946A027C
:1007A00016F00C94C1040C94250268940C941F025A
:1007B0000E944F02A8F39923C1F3AEF3DF93CF93C6
:1007C0001F930F93FF92C92FDD2788232AF02197CB
:1007D000660F771F881FDAF720E030E040E85FEB14
:1007E0009FE3883920F0803E38F021968F770E9471
:1007F0005504E0E9F0E004C00E945504EDEBF0E0A0
:100800000E9467038B01BE01EC01FB2E6F5771093B
:100810007595771F880B990B0E94E40128E132E758
:1008200041E35FE30E948302AF2D9801AE01FF9088
:100830000F911F91CF91DF910E946C040C943602AE
:10084000FA01DC01AA0FBB1F9B01AC01BF5728F4C2
:10085000222733274427507820C0B75190F4AB2F7C
:100860000024469537952795011CA395D2F30020C7
:1008700071F0220F331F441FB395DAF30ED00C949E
:10088000540461307105A0E88A07B94630F49B0131
:10089000AC016627772788279078309621F020834F
:1008A00031834283538308955058BB27AA270E945F
:1008B0006C040C9436020E94280238F00E942F0229
:1008C00020F039F49F3F19F426F40C9425020EF41D
:1008D000E095E7FB0C941F02E92F0E94470258F3B2
:1008E000BA17620773078407950720F079F4A6F515
:1008F0000C9469020EF4E0950B2EBA2FA02D0B017B
:10090000B90190010C01CA01A0011124FF27591B54
:1009100099F0593F50F4503E68F11A16F040A22F5A
:10092000232F342F4427585FF3CF469537952795CB
:10093000A795F0405395C9F77EF41F16BA0B620BCA
:10094000730B840BBAF09150A1F0FF0FBB1F661F11
:10095000771F881FC2F70EC0BA0F621F731F841F54
:1009600048F4879577956795B795F7959E3F08F07A
:10097000B0CF9395880F08F09927EE0F979587953C
:1009800008959F3F31F0915020F4879577956795B2
:10099000B795880F911D9695879597F90895F894C6
:0209A000FFCF87
:1009A200000102030405060708090A0B0C0D0E0FCD
:00000001FF
