:100000000C9434000C943E000C943E000C943E0082
:100010000C943E000C943E000C943E000C943E0068
:100020000C943E000C943E000C943E000C943E0058
:100030000C943E000C943E000C943E000C943E0048
:100040000C943E000C943E000C943E000C943E0038
:100050000C943E000C943E000C943E000C943E0028
:100060000C943E000C943E0011241FBECFEFD8E04C
:10007000DEBFCDBF0E945B000C947E000C9400009C
:1000800084B5826084BD85B5856085BD84B18F7778
:1000900084B984B1806284B985B1806885B98BE9FF
:1000A00087BD18BC089585B1806285B9089585B172
:1000B0008F7D85B908950E9440001F9908C098B5AA
:1000C00087B5981720F488B58F5F88BD08C01F9B3F
:1000D00006C088B5882319F088B5815088BD0E9474
:1000E0005300AA9BFECF85B3846085BB0E94570056
:1000F000A99BFECF85B3826085BBDFCFF894FFCF8D
:00000001FF
