S00C00004C6162382E73726563D1
S11300000C9434000C943E000C943E000C943E007E
S11300100C943E000C943E000C943E000C943E0064
S11300200C943E000C943E000C943E000C943E0054
S11300300C943E000C943E000C9440000C944F0031
S11300400C943E000C943E000C943E000C943E0034
S11300500C943E000C943E000C943E000C943E0024
S11300600C943E000C943E0011241FBECFEFD8E048
S1130070DEBFCDBF0E94A5000C9464020C94000066
S11300801F920F920FB60F9211248F9385B1806245
S113009085B98F910F900FBE0F901F9018951F92E6
S11300A00F920FB60F9211248F9385B18F7D85B96E
S11300B08F910F900FBE0F901F90189584B582609A
S11300C084BD85B5856085BDEEE6F0E080818660FF
S11300D080838DE487BD18BC0895CF92DF92EF92A0
S11300E0FF92CF93DF9380E090E00E944A0284362F
S11300F018F4CAE0C80F01C0C0E0D7B56C2F70E097
S113010080E090E00E94510120E030E048EC52E4AD
S11301100E94AE006B017C016D2F70E080E090E0E6
S11301200E945101A70196010E94DD010E94200155
S113013068BD6C2F80E090E00E945202DF91CF9165
S1130140FF90EF90DF90CF90089584B1806284B9DE
S11301500E945E000E946D007894FFCF0E94C2004E
S11301600C94A3010E949C0158F00E94950140F058
S113017029F45F3F29F00C948C0151110C94D701A0
S11301800C9492010E94B40168F39923B1F35523AE
S113019091F3951B550BBB27AA2762177307840796
S11301A038F09F5F5F4F220F331F441FAA1FA9F32C
S11301B035D00E2E3AF0E0E832D091505040E6951A
S11301C0001CCAF72BD0FE2F29D0660F771F881F7B
S11301D0BB1F261737074807AB07B0E809F0BB0B6E
S11301E0802DBF01FF2793585F4F3AF09E3F510582
S11301F078F00C948C010C94D7015F3FE4F3983EA3
S1130200D4F3869577956795B795F7959F5FC9F76A
S1130210880F911D9695879597F90895E1E0660FEB
S1130220771F881FBB1F621773078407BA0720F064
S1130230621B730B840BBA0BEE1F88F7E0950895CD
S11302400E94BC0188F09F5798F0B92F9927B751A5
S1130250B0F0E1F0660F771F881F991F1AF0BA9566
S1130260C9F714C0B13091F00E94D601B1E00895ED
S11302700C94D601672F782F8827B85F39F0B93FDF
S1130280CCF3869577956795B395D9F73EF4909519
S11302908095709561957F4F8F4F9F4F0895E89497
S11302A009C097FB3EF490958095709561957F4FBA
S11302B08F4F9F4F9923A9F0F92F96E9BB27939568
S11302C0F695879577956795B795F111F8CFFAF478
S11302D0BB0F11F460FF1BC06F5F7F4F8F4F9F4FA9
S11302E016C0882311F096E911C0772321F09EE807
S11302F0872F762F05C0662371F096E8862F70E06D
S113030060E02AF09A95660F771F881FDAF7880F46
S11303109695879597F9089597F99F6780E870E017
S113032060E008959FEF80EC089500240A94161667
S1130330170618060906089500240A9412161306CF
S1130340140605060895092E0394000C11F488235D
S113035052F0BB0F40F4BF2B11F460FF04C06F5F79
S11303607F4F8F4F9F4F089557FD9058440F551F4F
S113037059F05F3F71F04795880F97FB991F61F023
S11303809F3F79F087950895121613061406551F9A
S1130390F2CF4695F1DF08C0161617061806991F06
S11303A0F1CF86957105610508940895E894BB27FB
S11303B066277727CB0197F908950E94F0010C94E2
S11303C0A3010E94950138F00E949C0120F095231E
S11303D011F00C948C010C94920111240C94D7010B
S11303E00E94B40170F3959FC1F3950F50E0551F1F
S11303F0629FF001729FBB27F00DB11D639FAA2776
S1130400F00DB11DAA1F649F6627B00DA11D661FC4
S1130410829F2227B00DA11D621F739FB00DA11DE5
S1130420621F839FA00D611D221F749F3327A00D9F
S1130430611D231F849F600D211D822F762F6A2F3B
S113044011249F5750409AF0F1F088234AF0EE0FA0
S1130450FF1FBB1F661F771F881F91505040A9F7CD
S11304609E3F510580F00C948C010C94D7015F3FA2
S1130470E4F3983ED4F3869577956795B795F79509
S1130480E7959F5FC1F7FE2B880F911D9695879581
S113049097F90895F999FECF92BD81BDF89A9927ED
S11304A080B50895262FF999FECF92BD81BDF89AA3
S11304B0019700B4021639F01FBA20BD0FB6F894A4
S10F04C0FA9AF99A0FBE0895F894FFCF41
S9030000FC
