S00C00004C6162362E73726563D3
S11300000C9434000C9449000C9449000C9449005D
S11300100C9449000C9449000C9449000C94E90098
S11300200C94F8000C9449000C9449000C94490079
S11300300C9449000C9449000C9407010C94490059
S11300400C9449000C9449000C9449000C94490008
S11300500C9449000C9449000C9449000C944900F8
S11300600C9449000C94490011241FBECFEFD8E032
S1130070DEBFCDBF11E0A0E0B1E0EEEBF4E002C0E2
S113008005900D92A031B107D9F70E942B010C9471
S11300905D020C9400008AB1806F8AB984B1807FBC
S11300A084B985B18F6085B98BB1806F8BB984B108
S11300B0806284B908958F929F92AF92BF92DF922B
S11300C0EF92FF920F931F93CF93DF93D0E051C031
S11300D08BB1ED2EF12C97012C5F3F4F01E010E026
S11300E002C0000F111F2A95E2F7902F90958923E3
S11300F08BB9C0E038C083B12C2F30E090E00C2ED7
S113010002C0959587950A94E2F780FD2BC0C7013C
S1130110880F991F880F991F80509F4FFC01E20F91
S1130120F31FD080DD20F4F06091B30070E080E034
S113013090E00E9464012DEC3CEC4CEC5DE30E94E9
S1130140C8014B015C016D2DDD0C770B880B990BFD
S11301500E946401A50194010E94C8010E94330118
S11301606093B400CF5FC43030F28BB1082B0BB96D
S1130170DF5FD43008F4ACCFDF91CF911F910F91A2
S1130180FF90EF90DF90BF90AF909F908F90089575
S113019084B5826084BD85B5856085BDEEE6F0E0FA
S11301A08081826080838FE987BD0895E0EBF0E071
S11301B0808182608083E0E7F0E0808186608083D4
S11301C0E1EBF0E08081866080838DE48093B3006E
S11301D008951F920F920FB60F9211248F9385B139
S11301E0806285B98F910F900FBE0F901F90189564
S11301F01F920F920FB60F9211248F9385B18F7DAA
S113020085B98F910F900FBE0F901F9018951F9274
S11302100F920FB60F9211242F933F934F935F9336
S11302206F937F938F939F93AF93BF93EF93FF93BA
S11302300E945B00FF91EF91BF91AF919F918F91CD
S11302407F916F915F914F913F912F910F900FBECE
S11302500F901F9018950E944B000E94C8000E94A6
S1130260D6007894FFCF0E94A70188F09F5798F09A
S1130270B92F9927B751B0F0E1F0660F771F881FA7
S1130280991F1AF0BA95C9F714C0B13091F00E94C1
S1130290C101B1E008950C94C101672F782F88271C
S11302A0B85F39F0B93FCCF3869577956795B395E8
S11302B0D9F73EF490958095709561957F4F8F4F57
S11302C09F4F0895E89409C097FB3EF4909580955C
S11302D0709561957F4F8F4F9F4F9923A9F0F92F08
S11302E096E9BB279395F695879577956795B79586
S11302F0F111F8CFFAF4BB0F11F460FF1BC06F5F6C
S11303007F4F8F4F9F4F16C0882311F096E911C07D
S1130310772321F09EE8872F762F05C0662371F09E
S113032096E8862F70E060E02AF09A95660F771FB2
S1130330881FDAF7880F9695879597F9089557FDE2
S11303409058440F551F59F05F3F71F04795880F3F
S113035097FB991F61F09F3F79F0879508951216D6
S113036013061406551FF2CF4695F1DF08C0161682
S113037017061806991FF1CF869571056105089433
S11303800895E894BB2766277727CB0197F908954A
S11303900E94DB010C944C020E943E0238F00E9441
S11303A0450220F0952311F00C9435020C943B0285
S11303B011240C94C2010E949F0170F3959FC1F314
S11303C0950F50E0551F629FF001729FBB27F00DFF
S11303D0B11D639FAA27F00DB11DAA1F649F662754
S11303E0B00DA11D661F829F2227B00DA11D621FA3
S11303F0739FB00DA11D621F839FA00D611D221F5D
S1130400749F3327A00D611D231F849F600D211D40
S1130410822F762F6A2F11249F5750409AF0F1F0C3
S113042088234AF0EE0FFF1FBB1F661F771F881F2C
S113043091505040A9F79E3F510580F00C9435022D
S11304400C94C2015F3FE4F3983ED4F3869577950C
S11304506795B795F795E7959F5FC1F7FE2B880FD2
S1130460911D9695879597F9089597F99F6780E868
S113047070E060E008959FEF80EC089500240A94F2
S11304801616170618060906089500240A9412166B
S11304901306140605060895092E0394000C11F49E
S11304A0882352F0BB0F40F4BF2B11F460FF04C04B
S11104B06F5F7F4F8F4F9F4F0895F894FFCFDB
S11304BE010203FF040506FF070809FFFF00FFFF03
S9030000FC
